S010000073636963616C63692E73726563D9
S11300000C942A000C943F000C943F000C943F0085
S11300100C943F000C943F000C943F000C943F0060
S11300200C943F000C943F000C943F000C943F0050
S11300300C943F000C943F000C943F000C943F0040
S11300400C943F000C943F000C943F000C943F0030
S11300500C943F0011241FBECFE5D8E0DEBFCDBF16
S113006010E0A0E6B0E0EEE3FBE002C005900D92E4
S1130070AC38B107D9F70E9481010C949D050C940A
S1130080000085BB82B38E7F82BB82B38D7F82BB2F
S113009082B3846082BB8FE99FE00197F1F700C0CF
S11300A0000082B38B7F82BB089585BB82B38160DD
S11300B082BB82B38D7F82BB82B3846082BB8FE9B3
S11300C09FE00197F1F700C0000082B38B7F82BBF1
S11300D008950F931F93CF93DF93CDB7DEB7A39704
S11300E00FB6F894DEBF0FBECDBF8FEF84BB81B3D4
S11300F0876081BB82B38B7F82BB88E30E9441000F
S11301008EE00E94410081E00E94410080E80E944C
S113011041008FE39FE10197F1F700C000008FE0F9
S1130120E0E6F0E0DE01119601900D928A95E1F788
S113013084E1EFE6F0E0DE01509601900D928A959D
S1130140E1F700E010E00DC00E9455009FEF23EF9F
S113015081E0915020408040E1F700C000000F5F33
S11301601F4FE1E0F0E0EC0FFD1FE00FF11F808175
S11301708111EACF80EC0E94410000E010E00DC044
S11301800E9455009FEF22E587E091502040804077
S1130190E1F700C000000F5F1F4FE0E1F0E0EC0F5B
S11301A0FD1FE00FF11F80818111EACF9FEF23E251
S11301B084EF915020408040E1F700C0000081E0CE
S11301C00E944100A3960FB6F894DEBF0FBECDBFC8
S11301D0DF91CF911F910F9108950F931F93CF93A8
S11301E0DF938C01C0E0D0E003C00E94550021964B
S11301F0F801EC0FFD1F80818111F7CFDF91CF91C2
S11302001F910F9108958FE08BBB89B38F30E9F371
S11302102FEF89EF90E0215080409040E1F700C03B
S1130220000089B38F3089F35DC08EEF8BBB89B337
S11302308E3F91F089B38E3B59F018F48E3751F00C
S11302400BC08E3D09F455C08E3E09F450C004C065
S113025089E308958FE208958DEF8BBB89B38D3FB9
S113026091F089B38D3B59F018F48D3751F00BC0E0
S11302708D3D09F440C08D3E31F484E3089586E356
S113028008958AE208958BEF8BBB89B38B3F89F085
S113029089B38B3B51F018F48B3749F00AC08B3D7E
S11302A061F18B3E31F481E3089583E308958DE297
S11302B0089587EF8BBB89B3873FA1F089B3873B50
S11302C0F1F018F4873761F00DC0873D19F0873ECF
S11302D019F008C080E3089581E00E94410002C043
S11302E08BE2089589B38F3009F09FCF8ECF87E3D7
S11302F0089588E3089585E3089582E308958DE3DE
S11303000895CF93DF93CDB7DEB7E0970FB6F89497
S1130310DEBF0FBECDBF8FE08ABB0E94690081E0C3
S11303200E944100E12CF12C00E00E940301182FEF
S113033090ED980F9A3048F5011114C0FE013196E2
S113034001900020E9F7319780832FEF83EC99E047
S1130350215080409040E1F700C00000812F0E94AE
S11303605500E3CFFE01719601900020E9F7319723
S11303708083AFEFB3EC29E0A150B0402040E1F717
S113038000C000000E945500D0CF8B3231F08D3276
S113039021F08A3211F08F3289F48FEF93ECA9E0C7
S11303A081509040A040E1F700C0000080EC0E9422
S11303B04100812F0E945500012FB7CF8D3309F0E2
S11303C0B4CFFE01319601900020E9F731971082F5
S11303D0FE01719601900020E9F7319710820B32EB
S11303E049F018F40A32F1F03CC00D3279F00F32C2
S11303F051F137C0CE0101960E948D027C01CE01DD
S113040041960E948D02E80EF91E2BC0CE01019682
S11304100E948D027C01CE0141960E948D02E81A51
S1130420F90A1FC0CE0101960E948D028C01CE01F3
S113043041960E948D02089F7001099FF00C189F3D
S1130440F00C11240EC0CE0101960E948D028C0185
S1130450CE0141960E948D02BC01C8010E94650232
S11304607B0181E00E944100FF92EF9283E890E0DB
S11304709F938F938E010F5D1F4F1F930F930E94C5
S1130480B302C8010E94ED0080E1FE013196DF0154
S1130490282F1D922A95E9F77096DF011D928A95FF
S11304A0E9F7BFEF23E284EFB15020408040E1F749
S11304B000C0000081E00E9441000F900F900F9057
S11304C00F900F900F9000E030CF97FB072E16F49B
S11304D0009407D077FD09D00E94790207FC05D06B
S11304E03EF4909581959F4F0895709561957F4F47
S11304F00895AA1BBB1B51E107C0AA1FBB1FA61767
S1130500B70710F0A61BB70B881F991F5A95A9F7B8
S113051080959095BC01CD010895FC018827992709
S1130520E89421912032E9F3293010F02E30C8F3F9
S11305302B3241F02D3239F4689404C00E94AB028E
S1130540820F911D219120532A30C0F31EF49095FF
S113055081959F4F08957AE0979F902D879F802DD6
S1130560910D11240895AEE0B0E0E9EBF2E00C94B3
S113057074050D891E8986E08C831A8309838FEFA5
S11305809FE79E838D83AE01475E5F4F6F89788DB1
S1130590CE0101960E94D502EF81F885E00FF11F8C
S11305A010822E96E4E00C949005ABE0B0E0EBED05
S11305B0F2E00C9466056C017B018A01FC01178250
S11305C01682838181FFCCC1CE0101963C01F601E4
S11305D09381F70193FD859193FF81917F01882396
S11305E009F4BAC1853239F493FD859193FF819161
S11305F07F01853229F4B60190E00E94CC04E7CF54
S1130600912C212C312CFFE1F315D8F08B3279F0A9
S113061038F4803279F08332A1F4232D20611DC097
S11306208D3261F0803369F4232D216016C0832D4F
S11306308260382EE32DE4603E2E2AC0F32DF8604C
S11306401DC037FC2DC020ED280F2A3040F08E321B
S1130650B9F436FC81C1232D2064322E19C036FE34
S113066006C08AE0989E200D1124922E11C0EAE063
S11306702E9E200D1124222EF32DF0623F2E08C051
S11306808C3621F4832D8068382E02C0883641F4DC
S1130690F70193FD859193FF81917F018111B3CF80
S11306A0982F9F7D9554933028F40C5F1F4F9FE340
S11306B099830DC0833631F0833771F0833509F0A7
S11306C059C021C0F801808189830E5F1F4F88249F
S11306D08394912C530113C02801F2E04F0E511C56
S11306E0F801A080B18036FE03C0692D70E002C01D
S11306F06FEF7FEFC5010E94C1044C018201F32D0D
S1130700FF773F2E16C0280122E0420E511CF8014B
S1130710A080B18036FE03C0692D70E002C06FEF87
S11307207FEFC5010E94B6044C01F32DF0683F2E03
S1130730820133FC1BC0822D90E088169906B0F428
S1130740B60180E290E00E94CC042A94F4CFF50133
S113075037FC859137FE81915F01B60190E00E94DC
S1130760CC0421102A9421E0821A91088114910466
S113077071F7E8C0843611F0893641F5F80137FE87
S113078007C060817181828193810C5F1F4F08C013
S113079060817181072E000C880B990B0E5F1F4F2F
S11307A0F32DFF763F2E97FF09C0909580957095A5
S11307B061957F4F8F4F9F4FF0683F2E2AE030E0C6
S11307C0A3010E940805882E861845C0853731F498
S11307D0232D2F7EB22E2AE030E025C0932D997F61
S11307E0B92E8F36C1F018F4883579F0B5C080374A
S11307F019F0883721F0B0C0E92FE061BE2EB4FEB5
S11308000DC0FB2DF460BF2E09C034FE0AC0292F91
S11308102660B22E06C028E030E005C020E130E0BA
S113082002C020E132E0F801B7FE07C060817181A7
S1130830828193810C5F1F4F06C06081718180E0CB
S113084090E00E5F1F4FA3010E940805882E8618B2
S1130850FB2DFF773F2E36FE0DC0232D2E7FA22EBB
S1130860891458F434FE0BC032FC09C0832D8E7EEB
S1130870A82E05C0B82CA32C03C0B82C01C0B92CD9
S1130880A4FE0FC0FE01E80DF11D8081803321F428
S11308909A2D997EA92E09C0A2FE06C0B394B394E2
S11308A004C08A2D867809F0B394A3FC11C0A0FE7D
S11308B006C0B21488F4280C922C9B180EC0B214F3
S11308C060F4B60180E290E00E94CC04B394F7CFC8
S11308D0B21418F42B1802C0982C212CA4FE10C0BA
S11308E0B60180E390E00E94CC04A2FE17C0A1FCF4
S11308F003C088E790E002C088E590E0B6010CC030
S11309008A2D867859F0A1FE02C08BE201C080E2F4
S1130910A7FC8DE2B60190E00E94CC04891438F45F
S1130920B60180E390E00E94CC049A94F7CF8A94B5
S1130930F301E80DF11D8081B60190E00E94CC0422
S11309408110F5CF222009F442CEB60180E290E076
S11309500E94CC042A94F6CFF6018681978102C0C6
S11309608FEF9FEF2B96E2E10C948205FC0105903A
S1130970615070400110D8F7809590958E0F9F1F9D
S11309800895FC016150704001900110D8F78095E2
S113099090958E0F9F1F08950F931F93CF93DF930E
S11309A0FB01238121FD03C08FEF9FEF2CC022FFA9
S11309B016C046815781248135814217530744F478
S11309C0A081B1819D012F5F3F4F318320838C93A0
S11309D0268137812F5F3F4F3783268314C08B01D5
S11309E0EC01FB010084F185E02D0995892BE1F6EA
S11309F0D80116968D919C911797019617969C9302
S1130A008E931697CE01DF91CF911F910F91089588
S1130A10FA01AA27283051F1203181F1E8946F932B
S1130A206E7F6E5F7F4F8F4F9F4FAF4FB1E03ED0D1
S1130A30B4E03CD0670F781F891F9A1FA11D680F6F
S1130A40791F8A1F911DA11D6A0F711D811D911DA2
S1130A50A11D20D009F468943F912AE0269F112417
S1130A603019305D3193DEF6CF010895462F47707B
S1130A70405D4193B3E00FD0C9F7F6CF462F4F70D6
S1130A80405D4A3318F0495D31FD4052419302D034
S1130A90A9F7EACFB4E0A6959795879577956795DA
S1130AA0BA95C9F700976105710508959B01AC01DA
S1130AB00A2E06945795479537952795BA95C9F701
S1130AC0620F731F841F951FA01D08952F923F92DC
S1130AD04F925F926F927F928F929F92AF92BF924A
S1130AE0CF92DF92EF92FF920F931F93CF93DF93F6
S1130AF0CDB7DEB7CA1BDB0B0FB6F894DEBF0FBE53
S1130B00CDBF09942A88398848885F846E847D849F
S1130B108C849B84AA84B984C884DF80EE80FD80A1
S1130B200C811B81AA81B981CE0FD11D0FB6F89417
S1110B30DEBF0FBECDBFED010895F894FFCFD8
S1130B3E446576656C6F7065642062793A20005066
S1130B4E726164756D6E204B756D61722042696EB3
S10F0B5E642000414E533A20256400003E
S9030000FC
